{
  "_format": "hh-sol-artifact-1",
  "contractName": "ERC20_BASE",
  "sourceName": "contracts/ERC20_BASE.sol",
  "abi": [
    {
      "inputs": [
        {
          "internalType": "string",
          "name": "_name",
          "type": "string"
        },
        {
          "internalType": "string",
          "name": "_symbol",
          "type": "string"
        }
      ],
      "stateMutability": "nonpayable",
      "type": "constructor"
    },
    {
      "anonymous": false,
      "inputs": [
        {
          "indexed": true,
          "internalType": "address",
          "name": "owner",
          "type": "address"
        },
        {
          "indexed": true,
          "internalType": "address",
          "name": "spender",
          "type": "address"
        },
        {
          "indexed": false,
          "internalType": "uint256",
          "name": "value",
          "type": "uint256"
        }
      ],
      "name": "Approval",
      "type": "event"
    },
    {
      "anonymous": false,
      "inputs": [
        {
          "indexed": true,
          "internalType": "bytes32",
          "name": "role",
          "type": "bytes32"
        },
        {
          "indexed": true,
          "internalType": "bytes32",
          "name": "previousAdminRole",
          "type": "bytes32"
        },
        {
          "indexed": true,
          "internalType": "bytes32",
          "name": "newAdminRole",
          "type": "bytes32"
        }
      ],
      "name": "RoleAdminChanged",
      "type": "event"
    },
    {
      "anonymous": false,
      "inputs": [
        {
          "indexed": true,
          "internalType": "bytes32",
          "name": "role",
          "type": "bytes32"
        },
        {
          "indexed": true,
          "internalType": "address",
          "name": "account",
          "type": "address"
        },
        {
          "indexed": true,
          "internalType": "address",
          "name": "sender",
          "type": "address"
        }
      ],
      "name": "RoleGranted",
      "type": "event"
    },
    {
      "anonymous": false,
      "inputs": [
        {
          "indexed": true,
          "internalType": "bytes32",
          "name": "role",
          "type": "bytes32"
        },
        {
          "indexed": true,
          "internalType": "address",
          "name": "account",
          "type": "address"
        },
        {
          "indexed": true,
          "internalType": "address",
          "name": "sender",
          "type": "address"
        }
      ],
      "name": "RoleRevoked",
      "type": "event"
    },
    {
      "anonymous": false,
      "inputs": [
        {
          "indexed": true,
          "internalType": "address",
          "name": "from",
          "type": "address"
        },
        {
          "indexed": true,
          "internalType": "address",
          "name": "to",
          "type": "address"
        },
        {
          "indexed": false,
          "internalType": "uint256",
          "name": "value",
          "type": "uint256"
        }
      ],
      "name": "Transfer",
      "type": "event"
    },
    {
      "inputs": [],
      "name": "DEFAULT_ADMIN_ROLE",
      "outputs": [
        {
          "internalType": "bytes32",
          "name": "",
          "type": "bytes32"
        }
      ],
      "stateMutability": "view",
      "type": "function"
    },
    {
      "inputs": [],
      "name": "MINTER_ROLE",
      "outputs": [
        {
          "internalType": "bytes32",
          "name": "",
          "type": "bytes32"
        }
      ],
      "stateMutability": "view",
      "type": "function"
    },
    {
      "inputs": [
        {
          "internalType": "address",
          "name": "owner",
          "type": "address"
        },
        {
          "internalType": "address",
          "name": "spender",
          "type": "address"
        }
      ],
      "name": "allowance",
      "outputs": [
        {
          "internalType": "uint256",
          "name": "",
          "type": "uint256"
        }
      ],
      "stateMutability": "view",
      "type": "function"
    },
    {
      "inputs": [
        {
          "internalType": "address",
          "name": "spender",
          "type": "address"
        },
        {
          "internalType": "uint256",
          "name": "amount",
          "type": "uint256"
        }
      ],
      "name": "approve",
      "outputs": [
        {
          "internalType": "bool",
          "name": "",
          "type": "bool"
        }
      ],
      "stateMutability": "nonpayable",
      "type": "function"
    },
    {
      "inputs": [
        {
          "internalType": "address",
          "name": "account",
          "type": "address"
        }
      ],
      "name": "balanceOf",
      "outputs": [
        {
          "internalType": "uint256",
          "name": "",
          "type": "uint256"
        }
      ],
      "stateMutability": "view",
      "type": "function"
    },
    {
      "inputs": [
        {
          "internalType": "uint256",
          "name": "amount",
          "type": "uint256"
        }
      ],
      "name": "burn",
      "outputs": [],
      "stateMutability": "nonpayable",
      "type": "function"
    },
    {
      "inputs": [
        {
          "internalType": "address",
          "name": "account",
          "type": "address"
        },
        {
          "internalType": "uint256",
          "name": "amount",
          "type": "uint256"
        }
      ],
      "name": "burnFrom",
      "outputs": [],
      "stateMutability": "nonpayable",
      "type": "function"
    },
    {
      "inputs": [],
      "name": "claimFaucet",
      "outputs": [],
      "stateMutability": "nonpayable",
      "type": "function"
    },
    {
      "inputs": [],
      "name": "decimals",
      "outputs": [
        {
          "internalType": "uint8",
          "name": "",
          "type": "uint8"
        }
      ],
      "stateMutability": "view",
      "type": "function"
    },
    {
      "inputs": [
        {
          "internalType": "address",
          "name": "spender",
          "type": "address"
        },
        {
          "internalType": "uint256",
          "name": "subtractedValue",
          "type": "uint256"
        }
      ],
      "name": "decreaseAllowance",
      "outputs": [
        {
          "internalType": "bool",
          "name": "",
          "type": "bool"
        }
      ],
      "stateMutability": "nonpayable",
      "type": "function"
    },
    {
      "inputs": [
        {
          "internalType": "bytes32",
          "name": "role",
          "type": "bytes32"
        }
      ],
      "name": "getRoleAdmin",
      "outputs": [
        {
          "internalType": "bytes32",
          "name": "",
          "type": "bytes32"
        }
      ],
      "stateMutability": "view",
      "type": "function"
    },
    {
      "inputs": [
        {
          "internalType": "bytes32",
          "name": "role",
          "type": "bytes32"
        },
        {
          "internalType": "address",
          "name": "account",
          "type": "address"
        }
      ],
      "name": "grantRole",
      "outputs": [],
      "stateMutability": "nonpayable",
      "type": "function"
    },
    {
      "inputs": [
        {
          "internalType": "bytes32",
          "name": "role",
          "type": "bytes32"
        },
        {
          "internalType": "address",
          "name": "account",
          "type": "address"
        }
      ],
      "name": "hasRole",
      "outputs": [
        {
          "internalType": "bool",
          "name": "",
          "type": "bool"
        }
      ],
      "stateMutability": "view",
      "type": "function"
    },
    {
      "inputs": [
        {
          "internalType": "address",
          "name": "spender",
          "type": "address"
        },
        {
          "internalType": "uint256",
          "name": "addedValue",
          "type": "uint256"
        }
      ],
      "name": "increaseAllowance",
      "outputs": [
        {
          "internalType": "bool",
          "name": "",
          "type": "bool"
        }
      ],
      "stateMutability": "nonpayable",
      "type": "function"
    },
    {
      "inputs": [
        {
          "internalType": "address",
          "name": "to",
          "type": "address"
        },
        {
          "internalType": "uint256",
          "name": "amount",
          "type": "uint256"
        }
      ],
      "name": "mint",
      "outputs": [],
      "stateMutability": "nonpayable",
      "type": "function"
    },
    {
      "inputs": [],
      "name": "name",
      "outputs": [
        {
          "internalType": "string",
          "name": "",
          "type": "string"
        }
      ],
      "stateMutability": "view",
      "type": "function"
    },
    {
      "inputs": [
        {
          "internalType": "bytes32",
          "name": "role",
          "type": "bytes32"
        },
        {
          "internalType": "address",
          "name": "account",
          "type": "address"
        }
      ],
      "name": "renounceRole",
      "outputs": [],
      "stateMutability": "nonpayable",
      "type": "function"
    },
    {
      "inputs": [
        {
          "internalType": "bytes32",
          "name": "role",
          "type": "bytes32"
        },
        {
          "internalType": "address",
          "name": "account",
          "type": "address"
        }
      ],
      "name": "revokeRole",
      "outputs": [],
      "stateMutability": "nonpayable",
      "type": "function"
    },
    {
      "inputs": [
        {
          "internalType": "bytes4",
          "name": "interfaceId",
          "type": "bytes4"
        }
      ],
      "name": "supportsInterface",
      "outputs": [
        {
          "internalType": "bool",
          "name": "",
          "type": "bool"
        }
      ],
      "stateMutability": "view",
      "type": "function"
    },
    {
      "inputs": [],
      "name": "symbol",
      "outputs": [
        {
          "internalType": "string",
          "name": "",
          "type": "string"
        }
      ],
      "stateMutability": "view",
      "type": "function"
    },
    {
      "inputs": [],
      "name": "totalSupply",
      "outputs": [
        {
          "internalType": "uint256",
          "name": "",
          "type": "uint256"
        }
      ],
      "stateMutability": "view",
      "type": "function"
    },
    {
      "inputs": [
        {
          "internalType": "address",
          "name": "to",
          "type": "address"
        },
        {
          "internalType": "uint256",
          "name": "amount",
          "type": "uint256"
        }
      ],
      "name": "transfer",
      "outputs": [
        {
          "internalType": "bool",
          "name": "",
          "type": "bool"
        }
      ],
      "stateMutability": "nonpayable",
      "type": "function"
    },
    {
      "inputs": [
        {
          "internalType": "address",
          "name": "from",
          "type": "address"
        },
        {
          "internalType": "address",
          "name": "to",
          "type": "address"
        },
        {
          "internalType": "uint256",
          "name": "amount",
          "type": "uint256"
        }
      ],
      "name": "transferFrom",
      "outputs": [
        {
          "internalType": "bool",
          "name": "",
          "type": "bool"
        }
      ],
      "stateMutability": "nonpayable",
      "type": "function"
    }
  ],
  "bytecode": "0x60806040523480156200001157600080fd5b50604051620032d7380380620032d7833981810160405281019062000037919062000565565b818181600390816200004a919062000835565b5080600490816200005c919062000835565b5050506200009e3362000074620000ed60201b60201c565b600a62000082919062000aac565b620186a062000092919062000afd565b620000f660201b60201c565b620000b36000801b336200026360201b60201c565b620000e57f9f2df0fed2c77648de5860a4cc508cd0818c85b8b8a1ab4ceeef8d981c8956a6336200026360201b60201c565b505062000c34565b60006012905090565b600073ffffffffffffffffffffffffffffffffffffffff168273ffffffffffffffffffffffffffffffffffffffff160362000168576040517f08c379a00000000000000000000000000000000000000000000000000000000081526004016200015f9062000ba9565b60405180910390fd5b6200017c600083836200035560201b60201c565b806002600082825462000190919062000bcb565b92505081905550806000808473ffffffffffffffffffffffffffffffffffffffff1673ffffffffffffffffffffffffffffffffffffffff168152602001908152602001600020600082825401925050819055508173ffffffffffffffffffffffffffffffffffffffff16600073ffffffffffffffffffffffffffffffffffffffff167fddf252ad1be2c89b69c2b068fc378daa952ba7f163c4a11628f55a4df523b3ef8360405162000243919062000c17565b60405180910390a36200025f600083836200035a60201b60201c565b5050565b6200027582826200035f60201b60201c565b620003515760016005600084815260200190815260200160002060000160008373ffffffffffffffffffffffffffffffffffffffff1673ffffffffffffffffffffffffffffffffffffffff16815260200190815260200160002060006101000a81548160ff021916908315150217905550620002f6620003ca60201b60201c565b73ffffffffffffffffffffffffffffffffffffffff168173ffffffffffffffffffffffffffffffffffffffff16837f2f8788117e7eff1d82e926ec794901d17c78024a50270940304540a733656f0d60405160405180910390a45b5050565b505050565b505050565b60006005600084815260200190815260200160002060000160008373ffffffffffffffffffffffffffffffffffffffff1673ffffffffffffffffffffffffffffffffffffffff16815260200190815260200160002060009054906101000a900460ff16905092915050565b600033905090565b6000604051905090565b600080fd5b600080fd5b600080fd5b600080fd5b6000601f19601f8301169050919050565b7f4e487b7100000000000000000000000000000000000000000000000000000000600052604160045260246000fd5b6200043b82620003f0565b810181811067ffffffffffffffff821117156200045d576200045c62000401565b5b80604052505050565b600062000472620003d2565b905062000480828262000430565b919050565b600067ffffffffffffffff821115620004a357620004a262000401565b5b620004ae82620003f0565b9050602081019050919050565b60005b83811015620004db578082015181840152602081019050620004be565b60008484015250505050565b6000620004fe620004f88462000485565b62000466565b9050828152602081018484840111156200051d576200051c620003eb565b5b6200052a848285620004bb565b509392505050565b600082601f8301126200054a5762000549620003e6565b5b81516200055c848260208601620004e7565b91505092915050565b600080604083850312156200057f576200057e620003dc565b5b600083015167ffffffffffffffff811115620005a0576200059f620003e1565b5b620005ae8582860162000532565b925050602083015167ffffffffffffffff811115620005d257620005d1620003e1565b5b620005e08582860162000532565b9150509250929050565b600081519050919050565b7f4e487b7100000000000000000000000000000000000000000000000000000000600052602260045260246000fd5b600060028204905060018216806200063d57607f821691505b602082108103620006535762000652620005f5565b5b50919050565b60008190508160005260206000209050919050565b60006020601f8301049050919050565b600082821b905092915050565b600060088302620006bd7fffffffffffffffffffffffffffffffffffffffffffffffffffffffffffffffff826200067e565b620006c986836200067e565b95508019841693508086168417925050509392505050565b6000819050919050565b6000819050919050565b600062000716620007106200070a84620006e1565b620006eb565b620006e1565b9050919050565b6000819050919050565b6200073283620006f5565b6200074a62000741826200071d565b8484546200068b565b825550505050565b600090565b6200076162000752565b6200076e81848462000727565b505050565b5b8181101562000796576200078a60008262000757565b60018101905062000774565b5050565b601f821115620007e557620007af8162000659565b620007ba846200066e565b81016020851015620007ca578190505b620007e2620007d9856200066e565b83018262000773565b50505b505050565b600082821c905092915050565b60006200080a60001984600802620007ea565b1980831691505092915050565b6000620008258383620007f7565b9150826002028217905092915050565b6200084082620005ea565b67ffffffffffffffff8111156200085c576200085b62000401565b5b62000868825462000624565b620008758282856200079a565b600060209050601f831160018114620008ad576000841562000898578287015190505b620008a4858262000817565b86555062000914565b601f198416620008bd8662000659565b60005b82811015620008e757848901518255600182019150602085019450602081019050620008c0565b8683101562000907578489015162000903601f891682620007f7565b8355505b6001600288020188555050505b505050505050565b7f4e487b7100000000000000000000000000000000000000000000000000000000600052601160045260246000fd5b60008160011c9050919050565b6000808291508390505b6001851115620009aa578086048111156200098257620009816200091c565b5b6001851615620009925780820291505b8081029050620009a2856200094b565b945062000962565b94509492505050565b600082620009c5576001905062000a98565b81620009d5576000905062000a98565b8160018114620009ee5760028114620009f95762000a2f565b600191505062000a98565b60ff84111562000a0e5762000a0d6200091c565b5b8360020a91508482111562000a285762000a276200091c565b5b5062000a98565b5060208310610133831016604e8410600b841016171562000a695782820a90508381111562000a635762000a626200091c565b5b62000a98565b62000a78848484600162000958565b9250905081840481111562000a925762000a916200091c565b5b81810290505b9392505050565b600060ff82169050919050565b600062000ab982620006e1565b915062000ac68362000a9f565b925062000af57fffffffffffffffffffffffffffffffffffffffffffffffffffffffffffffffff8484620009b3565b905092915050565b600062000b0a82620006e1565b915062000b1783620006e1565b925082820262000b2781620006e1565b9150828204841483151762000b415762000b406200091c565b5b5092915050565b600082825260208201905092915050565b7f45524332303a206d696e7420746f20746865207a65726f206164647265737300600082015250565b600062000b91601f8362000b48565b915062000b9e8262000b59565b602082019050919050565b6000602082019050818103600083015262000bc48162000b82565b9050919050565b600062000bd882620006e1565b915062000be583620006e1565b925082820190508082111562000c005762000bff6200091c565b5b92915050565b62000c1181620006e1565b82525050565b600060208201905062000c2e600083018462000c06565b92915050565b6126938062000c446000396000f3fe608060405234801561001057600080fd5b506004361061014d5760003560e01c806342966c68116100c3578063a217fddf1161007c578063a217fddf146103b0578063a457c2d7146103ce578063a9059cbb146103fe578063d53913931461042e578063d547741f1461044c578063dd62ed3e146104685761014d565b806342966c68146102f05780634fe153351461030c57806370a082311461031657806379cc67901461034657806391d148541461036257806395d89b41146103925761014d565b8063248a9ca311610115578063248a9ca31461021e5780632f2ff15d1461024e578063313ce5671461026a57806336568abe1461028857806339509351146102a457806340c10f19146102d45761014d565b806301ffc9a71461015257806306fdde0314610182578063095ea7b3146101a057806318160ddd146101d057806323b872dd146101ee575b600080fd5b61016c600480360381019061016791906117db565b610498565b6040516101799190611823565b60405180910390f35b61018a610512565b60405161019791906118ce565b60405180910390f35b6101ba60048036038101906101b59190611984565b6105a4565b6040516101c79190611823565b60405180910390f35b6101d86105c7565b6040516101e591906119d3565b60405180910390f35b610208600480360381019061020391906119ee565b6105d1565b6040516102159190611823565b60405180910390f35b61023860048036038101906102339190611a77565b610600565b6040516102459190611ab3565b60405180910390f35b61026860048036038101906102639190611ace565b610620565b005b610272610641565b60405161027f9190611b2a565b60405180910390f35b6102a2600480360381019061029d9190611ace565b61064a565b005b6102be60048036038101906102b99190611984565b6106cd565b6040516102cb9190611823565b60405180910390f35b6102ee60048036038101906102e99190611984565b610704565b005b61030a60048036038101906103059190611b45565b61073d565b005b610314610751565b005b610330600480360381019061032b9190611b72565b61077d565b60405161033d91906119d3565b60405180910390f35b610360600480360381019061035b9190611984565b6107c5565b005b61037c60048036038101906103779190611ace565b6107e5565b6040516103899190611823565b60405180910390f35b61039a610850565b6040516103a791906118ce565b60405180910390f35b6103b86108e2565b6040516103c59190611ab3565b60405180910390f35b6103e860048036038101906103e39190611984565b6108e9565b6040516103f59190611823565b60405180910390f35b61041860048036038101906104139190611984565b610960565b6040516104259190611823565b60405180910390f35b610436610983565b6040516104439190611ab3565b60405180910390f35b61046660048036038101906104619190611ace565b6109a7565b005b610482600480360381019061047d9190611b9f565b6109c8565b60405161048f91906119d3565b60405180910390f35b60007f7965db0b000000000000000000000000000000000000000000000000000000007bffffffffffffffffffffffffffffffffffffffffffffffffffffffff1916827bffffffffffffffffffffffffffffffffffffffffffffffffffffffff1916148061050b575061050a82610a4f565b5b9050919050565b60606003805461052190611c0e565b80601f016020809104026020016040519081016040528092919081815260200182805461054d90611c0e565b801561059a5780601f1061056f5761010080835404028352916020019161059a565b820191906000526020600020905b81548152906001019060200180831161057d57829003601f168201915b5050505050905090565b6000806105af610ab9565b90506105bc818585610ac1565b600191505092915050565b6000600254905090565b6000806105dc610ab9565b90506105e9858285610c8a565b6105f4858585610d16565b60019150509392505050565b600060056000838152602001908152602001600020600101549050919050565b61062982610600565b61063281610f8c565b61063c8383610fa0565b505050565b60006012905090565b610652610ab9565b73ffffffffffffffffffffffffffffffffffffffff168173ffffffffffffffffffffffffffffffffffffffff16146106bf576040517f08c379a00000000000000000000000000000000000000000000000000000000081526004016106b690611cb1565b60405180910390fd5b6106c98282611081565b5050565b6000806106d8610ab9565b90506106f98185856106ea85896109c8565b6106f49190611d00565b610ac1565b600191505092915050565b7f9f2df0fed2c77648de5860a4cc508cd0818c85b8b8a1ab4ceeef8d981c8956a661072e81610f8c565b6107388383611163565b505050565b61074e610748610ab9565b826112b9565b50565b61077b3361075d610641565b600a6107699190611e67565b6103e86107769190611eb2565b611163565b565b60008060008373ffffffffffffffffffffffffffffffffffffffff1673ffffffffffffffffffffffffffffffffffffffff168152602001908152602001600020549050919050565b6107d7826107d1610ab9565b83610c8a565b6107e182826112b9565b5050565b60006005600084815260200190815260200160002060000160008373ffffffffffffffffffffffffffffffffffffffff1673ffffffffffffffffffffffffffffffffffffffff16815260200190815260200160002060009054906101000a900460ff16905092915050565b60606004805461085f90611c0e565b80601f016020809104026020016040519081016040528092919081815260200182805461088b90611c0e565b80156108d85780601f106108ad576101008083540402835291602001916108d8565b820191906000526020600020905b8154815290600101906020018083116108bb57829003601f168201915b5050505050905090565b6000801b81565b6000806108f4610ab9565b9050600061090282866109c8565b905083811015610947576040517f08c379a000000000000000000000000000000000000000000000000000000000815260040161093e90611f66565b60405180910390fd5b6109548286868403610ac1565b60019250505092915050565b60008061096b610ab9565b9050610978818585610d16565b600191505092915050565b7f9f2df0fed2c77648de5860a4cc508cd0818c85b8b8a1ab4ceeef8d981c8956a681565b6109b082610600565b6109b981610f8c565b6109c38383611081565b505050565b6000600160008473ffffffffffffffffffffffffffffffffffffffff1673ffffffffffffffffffffffffffffffffffffffff16815260200190815260200160002060008373ffffffffffffffffffffffffffffffffffffffff1673ffffffffffffffffffffffffffffffffffffffff16815260200190815260200160002054905092915050565b60007f01ffc9a7000000000000000000000000000000000000000000000000000000007bffffffffffffffffffffffffffffffffffffffffffffffffffffffff1916827bffffffffffffffffffffffffffffffffffffffffffffffffffffffff1916149050919050565b600033905090565b600073ffffffffffffffffffffffffffffffffffffffff168373ffffffffffffffffffffffffffffffffffffffff1603610b30576040517f08c379a0000000000000000000000000000000000000000000000000000000008152600401610b2790611ff8565b60405180910390fd5b600073ffffffffffffffffffffffffffffffffffffffff168273ffffffffffffffffffffffffffffffffffffffff1603610b9f576040517f08c379a0000000000000000000000000000000000000000000000000000000008152600401610b969061208a565b60405180910390fd5b80600160008573ffffffffffffffffffffffffffffffffffffffff1673ffffffffffffffffffffffffffffffffffffffff16815260200190815260200160002060008473ffffffffffffffffffffffffffffffffffffffff1673ffffffffffffffffffffffffffffffffffffffff168152602001908152602001600020819055508173ffffffffffffffffffffffffffffffffffffffff168373ffffffffffffffffffffffffffffffffffffffff167f8c5be1e5ebec7d5bd14f71427d1e84f3dd0314c0f7b2291e5b200ac8c7c3b92583604051610c7d91906119d3565b60405180910390a3505050565b6000610c9684846109c8565b90507fffffffffffffffffffffffffffffffffffffffffffffffffffffffffffffffff8114610d105781811015610d02576040517f08c379a0000000000000000000000000000000000000000000000000000000008152600401610cf9906120f6565b60405180910390fd5b610d0f8484848403610ac1565b5b50505050565b600073ffffffffffffffffffffffffffffffffffffffff168373ffffffffffffffffffffffffffffffffffffffff1603610d85576040517f08c379a0000000000000000000000000000000000000000000000000000000008152600401610d7c90612188565b60405180910390fd5b600073ffffffffffffffffffffffffffffffffffffffff168273ffffffffffffffffffffffffffffffffffffffff1603610df4576040517f08c379a0000000000000000000000000000000000000000000000000000000008152600401610deb9061221a565b60405180910390fd5b610dff838383611486565b60008060008573ffffffffffffffffffffffffffffffffffffffff1673ffffffffffffffffffffffffffffffffffffffff16815260200190815260200160002054905081811015610e85576040517f08c379a0000000000000000000000000000000000000000000000000000000008152600401610e7c906122ac565b60405180910390fd5b8181036000808673ffffffffffffffffffffffffffffffffffffffff1673ffffffffffffffffffffffffffffffffffffffff16815260200190815260200160002081905550816000808573ffffffffffffffffffffffffffffffffffffffff1673ffffffffffffffffffffffffffffffffffffffff168152602001908152602001600020600082825401925050819055508273ffffffffffffffffffffffffffffffffffffffff168473ffffffffffffffffffffffffffffffffffffffff167fddf252ad1be2c89b69c2b068fc378daa952ba7f163c4a11628f55a4df523b3ef84604051610f7391906119d3565b60405180910390a3610f8684848461148b565b50505050565b610f9d81610f98610ab9565b611490565b50565b610faa82826107e5565b61107d5760016005600084815260200190815260200160002060000160008373ffffffffffffffffffffffffffffffffffffffff1673ffffffffffffffffffffffffffffffffffffffff16815260200190815260200160002060006101000a81548160ff021916908315150217905550611022610ab9565b73ffffffffffffffffffffffffffffffffffffffff168173ffffffffffffffffffffffffffffffffffffffff16837f2f8788117e7eff1d82e926ec794901d17c78024a50270940304540a733656f0d60405160405180910390a45b5050565b61108b82826107e5565b1561115f5760006005600084815260200190815260200160002060000160008373ffffffffffffffffffffffffffffffffffffffff1673ffffffffffffffffffffffffffffffffffffffff16815260200190815260200160002060006101000a81548160ff021916908315150217905550611104610ab9565b73ffffffffffffffffffffffffffffffffffffffff168173ffffffffffffffffffffffffffffffffffffffff16837ff6391f5c32d9c69d2a47ea670b442974b53935d1edc7fd64eb21e047a839171b60405160405180910390a45b5050565b600073ffffffffffffffffffffffffffffffffffffffff168273ffffffffffffffffffffffffffffffffffffffff16036111d2576040517f08c379a00000000000000000000000000000000000000000000000000000000081526004016111c990612318565b60405180910390fd5b6111de60008383611486565b80600260008282546111f09190611d00565b92505081905550806000808473ffffffffffffffffffffffffffffffffffffffff1673ffffffffffffffffffffffffffffffffffffffff168152602001908152602001600020600082825401925050819055508173ffffffffffffffffffffffffffffffffffffffff16600073ffffffffffffffffffffffffffffffffffffffff167fddf252ad1be2c89b69c2b068fc378daa952ba7f163c4a11628f55a4df523b3ef836040516112a191906119d3565b60405180910390a36112b56000838361148b565b5050565b600073ffffffffffffffffffffffffffffffffffffffff168273ffffffffffffffffffffffffffffffffffffffff1603611328576040517f08c379a000000000000000000000000000000000000000000000000000000000815260040161131f906123aa565b60405180910390fd5b61133482600083611486565b60008060008473ffffffffffffffffffffffffffffffffffffffff1673ffffffffffffffffffffffffffffffffffffffff168152602001908152602001600020549050818110156113ba576040517f08c379a00000000000000000000000000000000000000000000000000000000081526004016113b19061243c565b60405180910390fd5b8181036000808573ffffffffffffffffffffffffffffffffffffffff1673ffffffffffffffffffffffffffffffffffffffff1681526020019081526020016000208190555081600260008282540392505081905550600073ffffffffffffffffffffffffffffffffffffffff168373ffffffffffffffffffffffffffffffffffffffff167fddf252ad1be2c89b69c2b068fc378daa952ba7f163c4a11628f55a4df523b3ef8460405161146d91906119d3565b60405180910390a36114818360008461148b565b505050565b505050565b505050565b61149a82826107e5565b611511576114a781611515565b6114b58360001c6020611542565b6040516020016114c6929190612530565b6040516020818303038152906040526040517f08c379a000000000000000000000000000000000000000000000000000000000815260040161150891906118ce565b60405180910390fd5b5050565b606061153b8273ffffffffffffffffffffffffffffffffffffffff16601460ff16611542565b9050919050565b6060600060028360026115559190611eb2565b61155f9190611d00565b67ffffffffffffffff8111156115785761157761256a565b5b6040519080825280601f01601f1916602001820160405280156115aa5781602001600182028036833780820191505090505b5090507f3000000000000000000000000000000000000000000000000000000000000000816000815181106115e2576115e1612599565b5b60200101907effffffffffffffffffffffffffffffffffffffffffffffffffffffffffffff1916908160001a9053507f78000000000000000000000000000000000000000000000000000000000000008160018151811061164657611645612599565b5b60200101907effffffffffffffffffffffffffffffffffffffffffffffffffffffffffffff1916908160001a905350600060018460026116869190611eb2565b6116909190611d00565b90505b6001811115611730577f3031323334353637383961626364656600000000000000000000000000000000600f8616601081106116d2576116d1612599565b5b1a60f81b8282815181106116e9576116e8612599565b5b60200101907effffffffffffffffffffffffffffffffffffffffffffffffffffffffffffff1916908160001a905350600485901c945080611729906125c8565b9050611693565b5060008414611774576040517f08c379a000000000000000000000000000000000000000000000000000000000815260040161176b9061263d565b60405180910390fd5b8091505092915050565b600080fd5b60007fffffffff0000000000000000000000000000000000000000000000000000000082169050919050565b6117b881611783565b81146117c357600080fd5b50565b6000813590506117d5816117af565b92915050565b6000602082840312156117f1576117f061177e565b5b60006117ff848285016117c6565b91505092915050565b60008115159050919050565b61181d81611808565b82525050565b60006020820190506118386000830184611814565b92915050565b600081519050919050565b600082825260208201905092915050565b60005b8381101561187857808201518184015260208101905061185d565b60008484015250505050565b6000601f19601f8301169050919050565b60006118a08261183e565b6118aa8185611849565b93506118ba81856020860161185a565b6118c381611884565b840191505092915050565b600060208201905081810360008301526118e88184611895565b905092915050565b600073ffffffffffffffffffffffffffffffffffffffff82169050919050565b600061191b826118f0565b9050919050565b61192b81611910565b811461193657600080fd5b50565b60008135905061194881611922565b92915050565b6000819050919050565b6119618161194e565b811461196c57600080fd5b50565b60008135905061197e81611958565b92915050565b6000806040838503121561199b5761199a61177e565b5b60006119a985828601611939565b92505060206119ba8582860161196f565b9150509250929050565b6119cd8161194e565b82525050565b60006020820190506119e860008301846119c4565b92915050565b600080600060608486031215611a0757611a0661177e565b5b6000611a1586828701611939565b9350506020611a2686828701611939565b9250506040611a378682870161196f565b9150509250925092565b6000819050919050565b611a5481611a41565b8114611a5f57600080fd5b50565b600081359050611a7181611a4b565b92915050565b600060208284031215611a8d57611a8c61177e565b5b6000611a9b84828501611a62565b91505092915050565b611aad81611a41565b82525050565b6000602082019050611ac86000830184611aa4565b92915050565b60008060408385031215611ae557611ae461177e565b5b6000611af385828601611a62565b9250506020611b0485828601611939565b9150509250929050565b600060ff82169050919050565b611b2481611b0e565b82525050565b6000602082019050611b3f6000830184611b1b565b92915050565b600060208284031215611b5b57611b5a61177e565b5b6000611b698482850161196f565b91505092915050565b600060208284031215611b8857611b8761177e565b5b6000611b9684828501611939565b91505092915050565b60008060408385031215611bb657611bb561177e565b5b6000611bc485828601611939565b9250506020611bd585828601611939565b9150509250929050565b7f4e487b7100000000000000000000000000000000000000000000000000000000600052602260045260246000fd5b60006002820490506001821680611c2657607f821691505b602082108103611c3957611c38611bdf565b5b50919050565b7f416363657373436f6e74726f6c3a2063616e206f6e6c792072656e6f756e636560008201527f20726f6c657320666f722073656c660000000000000000000000000000000000602082015250565b6000611c9b602f83611849565b9150611ca682611c3f565b604082019050919050565b60006020820190508181036000830152611cca81611c8e565b9050919050565b7f4e487b7100000000000000000000000000000000000000000000000000000000600052601160045260246000fd5b6000611d0b8261194e565b9150611d168361194e565b9250828201905080821115611d2e57611d2d611cd1565b5b92915050565b60008160011c9050919050565b6000808291508390505b6001851115611d8b57808604811115611d6757611d66611cd1565b5b6001851615611d765780820291505b8081029050611d8485611d34565b9450611d4b565b94509492505050565b600082611da45760019050611e60565b81611db25760009050611e60565b8160018114611dc85760028114611dd257611e01565b6001915050611e60565b60ff841115611de457611de3611cd1565b5b8360020a915084821115611dfb57611dfa611cd1565b5b50611e60565b5060208310610133831016604e8410600b8410161715611e365782820a905083811115611e3157611e30611cd1565b5b611e60565b611e438484846001611d41565b92509050818404811115611e5a57611e59611cd1565b5b81810290505b9392505050565b6000611e728261194e565b9150611e7d83611b0e565b9250611eaa7fffffffffffffffffffffffffffffffffffffffffffffffffffffffffffffffff8484611d94565b905092915050565b6000611ebd8261194e565b9150611ec88361194e565b9250828202611ed68161194e565b91508282048414831517611eed57611eec611cd1565b5b5092915050565b7f45524332303a2064656372656173656420616c6c6f77616e63652062656c6f7760008201527f207a65726f000000000000000000000000000000000000000000000000000000602082015250565b6000611f50602583611849565b9150611f5b82611ef4565b604082019050919050565b60006020820190508181036000830152611f7f81611f43565b9050919050565b7f45524332303a20617070726f76652066726f6d20746865207a65726f2061646460008201527f7265737300000000000000000000000000000000000000000000000000000000602082015250565b6000611fe2602483611849565b9150611fed82611f86565b604082019050919050565b6000602082019050818103600083015261201181611fd5565b9050919050565b7f45524332303a20617070726f766520746f20746865207a65726f20616464726560008201527f7373000000000000000000000000000000000000000000000000000000000000602082015250565b6000612074602283611849565b915061207f82612018565b604082019050919050565b600060208201905081810360008301526120a381612067565b9050919050565b7f45524332303a20696e73756666696369656e7420616c6c6f77616e6365000000600082015250565b60006120e0601d83611849565b91506120eb826120aa565b602082019050919050565b6000602082019050818103600083015261210f816120d3565b9050919050565b7f45524332303a207472616e736665722066726f6d20746865207a65726f20616460008201527f6472657373000000000000000000000000000000000000000000000000000000602082015250565b6000612172602583611849565b915061217d82612116565b604082019050919050565b600060208201905081810360008301526121a181612165565b9050919050565b7f45524332303a207472616e7366657220746f20746865207a65726f206164647260008201527f6573730000000000000000000000000000000000000000000000000000000000602082015250565b6000612204602383611849565b915061220f826121a8565b604082019050919050565b60006020820190508181036000830152612233816121f7565b9050919050565b7f45524332303a207472616e7366657220616d6f756e742065786365656473206260008201527f616c616e63650000000000000000000000000000000000000000000000000000602082015250565b6000612296602683611849565b91506122a18261223a565b604082019050919050565b600060208201905081810360008301526122c581612289565b9050919050565b7f45524332303a206d696e7420746f20746865207a65726f206164647265737300600082015250565b6000612302601f83611849565b915061230d826122cc565b602082019050919050565b60006020820190508181036000830152612331816122f5565b9050919050565b7f45524332303a206275726e2066726f6d20746865207a65726f2061646472657360008201527f7300000000000000000000000000000000000000000000000000000000000000602082015250565b6000612394602183611849565b915061239f82612338565b604082019050919050565b600060208201905081810360008301526123c381612387565b9050919050565b7f45524332303a206275726e20616d6f756e7420657863656564732062616c616e60008201527f6365000000000000000000000000000000000000000000000000000000000000602082015250565b6000612426602283611849565b9150612431826123ca565b604082019050919050565b6000602082019050818103600083015261245581612419565b9050919050565b600081905092915050565b7f416363657373436f6e74726f6c3a206163636f756e7420000000000000000000600082015250565b600061249d60178361245c565b91506124a882612467565b601782019050919050565b60006124be8261183e565b6124c8818561245c565b93506124d881856020860161185a565b80840191505092915050565b7f206973206d697373696e6720726f6c6520000000000000000000000000000000600082015250565b600061251a60118361245c565b9150612525826124e4565b601182019050919050565b600061253b82612490565b915061254782856124b3565b91506125528261250d565b915061255e82846124b3565b91508190509392505050565b7f4e487b7100000000000000000000000000000000000000000000000000000000600052604160045260246000fd5b7f4e487b7100000000000000000000000000000000000000000000000000000000600052603260045260246000fd5b60006125d38261194e565b9150600082036125e6576125e5611cd1565b5b600182039050919050565b7f537472696e67733a20686578206c656e67746820696e73756666696369656e74600082015250565b6000612627602083611849565b9150612632826125f1565b602082019050919050565b600060208201905081810360008301526126568161261a565b905091905056fea26469706673582212202be2abc6416717befa56a3e010b4273916549d308c24eccfd7fd4bae259bccbd64736f6c63430008180033",
  "linkReferences": {},
  "deployedLinkReferences": {}
}