{
  "_format": "hh-sol-artifact-1",
  "contractName": "SmartBasket",
  "sourceName": "contracts/SmartBasket.sol",
  "abi": [
    {
      "inputs": [
        {
          "internalType": "address",
          "name": "_uniswapRouter",
          "type": "address"
        },
        {
          "internalType": "address",
          "name": "_usdtAddress",
          "type": "address"
        }
      ],
      "stateMutability": "nonpayable",
      "type": "constructor"
    },
    {
      "anonymous": false,
      "inputs": [
        {
          "indexed": true,
          "internalType": "address",
          "name": "user",
          "type": "address"
        },
        {
          "indexed": false,
          "internalType": "uint256",
          "name": "basketIndex",
          "type": "uint256"
        },
        {
          "indexed": false,
          "internalType": "uint256",
          "name": "usdtAmount",
          "type": "uint256"
        }
      ],
      "name": "BasketCreated",
      "type": "event"
    },
    {
      "anonymous": false,
      "inputs": [
        {
          "indexed": true,
          "internalType": "address",
          "name": "user",
          "type": "address"
        },
        {
          "indexed": false,
          "internalType": "uint256",
          "name": "basketIndex",
          "type": "uint256"
        },
        {
          "indexed": false,
          "internalType": "uint256",
          "name": "usdtReturned",
          "type": "uint256"
        }
      ],
      "name": "BasketSold",
      "type": "event"
    },
    {
      "anonymous": false,
      "inputs": [
        {
          "indexed": true,
          "internalType": "address",
          "name": "previousOwner",
          "type": "address"
        },
        {
          "indexed": true,
          "internalType": "address",
          "name": "newOwner",
          "type": "address"
        }
      ],
      "name": "OwnershipTransferred",
      "type": "event"
    },
    {
      "inputs": [
        {
          "components": [
            {
              "internalType": "address",
              "name": "tokenAddress",
              "type": "address"
            },
            {
              "internalType": "uint256",
              "name": "percentage",
              "type": "uint256"
            },
            {
              "internalType": "uint256",
              "name": "amount",
              "type": "uint256"
            }
          ],
          "internalType": "struct SmartBasket.TokenAllocation[]",
          "name": "_allocations",
          "type": "tuple[]"
        },
        {
          "internalType": "uint256",
          "name": "_usdtAmount",
          "type": "uint256"
        }
      ],
      "name": "createBasket",
      "outputs": [],
      "stateMutability": "nonpayable",
      "type": "function"
    },
    {
      "inputs": [
        {
          "internalType": "address",
          "name": "user",
          "type": "address"
        },
        {
          "internalType": "uint256",
          "name": "basketIndex",
          "type": "uint256"
        }
      ],
      "name": "getBasketAssetDetails",
      "outputs": [
        {
          "internalType": "address[]",
          "name": "",
          "type": "address[]"
        },
        {
          "internalType": "uint256[]",
          "name": "",
          "type": "uint256[]"
        },
        {
          "internalType": "uint256[]",
          "name": "",
          "type": "uint256[]"
        },
        {
          "internalType": "uint256[]",
          "name": "",
          "type": "uint256[]"
        }
      ],
      "stateMutability": "view",
      "type": "function"
    },
    {
      "inputs": [
        {
          "internalType": "address",
          "name": "user",
          "type": "address"
        },
        {
          "internalType": "uint256",
          "name": "basketIndex",
          "type": "uint256"
        }
      ],
      "name": "getBasketTotalValue",
      "outputs": [
        {
          "internalType": "uint256",
          "name": "",
          "type": "uint256"
        }
      ],
      "stateMutability": "view",
      "type": "function"
    },
    {
      "inputs": [
        {
          "internalType": "address",
          "name": "user",
          "type": "address"
        }
      ],
      "name": "getUserBaskets",
      "outputs": [
        {
          "components": [
            {
              "components": [
                {
                  "internalType": "address",
                  "name": "tokenAddress",
                  "type": "address"
                },
                {
                  "internalType": "uint256",
                  "name": "percentage",
                  "type": "uint256"
                },
                {
                  "internalType": "uint256",
                  "name": "amount",
                  "type": "uint256"
                }
              ],
              "internalType": "struct SmartBasket.TokenAllocation[5]",
              "name": "allocations",
              "type": "tuple[5]"
            },
            {
              "internalType": "uint256",
              "name": "tokenCount",
              "type": "uint256"
            },
            {
              "internalType": "uint256",
              "name": "investmentValue",
              "type": "uint256"
            }
          ],
          "internalType": "struct SmartBasket.Basket[]",
          "name": "",
          "type": "tuple[]"
        }
      ],
      "stateMutability": "view",
      "type": "function"
    },
    {
      "inputs": [],
      "name": "owner",
      "outputs": [
        {
          "internalType": "address",
          "name": "",
          "type": "address"
        }
      ],
      "stateMutability": "view",
      "type": "function"
    },
    {
      "inputs": [],
      "name": "renounceOwnership",
      "outputs": [],
      "stateMutability": "nonpayable",
      "type": "function"
    },
    {
      "inputs": [
        {
          "internalType": "uint256",
          "name": "basketIndex",
          "type": "uint256"
        }
      ],
      "name": "sellBasket",
      "outputs": [],
      "stateMutability": "nonpayable",
      "type": "function"
    },
    {
      "inputs": [
        {
          "internalType": "address",
          "name": "newOwner",
          "type": "address"
        }
      ],
      "name": "transferOwnership",
      "outputs": [],
      "stateMutability": "nonpayable",
      "type": "function"
    },
    {
      "inputs": [],
      "name": "uniswapRouter",
      "outputs": [
        {
          "internalType": "contract IUniswapV2Router02",
          "name": "",
          "type": "address"
        }
      ],
      "stateMutability": "view",
      "type": "function"
    },
    {
      "inputs": [],
      "name": "usdtToken",
      "outputs": [
        {
          "internalType": "contract IERC20",
          "name": "",
          "type": "address"
        }
      ],
      "stateMutability": "view",
      "type": "function"
    },
    {
      "inputs": [
        {
          "internalType": "address",
          "name": "",
          "type": "address"
        },
        {
          "internalType": "uint256",
          "name": "",
          "type": "uint256"
        }
      ],
      "name": "userBaskets",
      "outputs": [
        {
          "internalType": "uint256",
          "name": "tokenCount",
          "type": "uint256"
        },
        {
          "internalType": "uint256",
          "name": "investmentValue",
          "type": "uint256"
        }
      ],
      "stateMutability": "view",
      "type": "function"
    }
  ],
  "bytecode": "0x60806040523480156200001157600080fd5b5060405162002fd138038062002fd1833981810160405281019062000037919062000217565b620000576200004b620000e160201b60201c565b620000e960201b60201c565b81600160006101000a81548173ffffffffffffffffffffffffffffffffffffffff021916908373ffffffffffffffffffffffffffffffffffffffff16021790555080600260006101000a81548173ffffffffffffffffffffffffffffffffffffffff021916908373ffffffffffffffffffffffffffffffffffffffff16021790555050506200025e565b600033905090565b60008060009054906101000a900473ffffffffffffffffffffffffffffffffffffffff169050816000806101000a81548173ffffffffffffffffffffffffffffffffffffffff021916908373ffffffffffffffffffffffffffffffffffffffff1602179055508173ffffffffffffffffffffffffffffffffffffffff168173ffffffffffffffffffffffffffffffffffffffff167f8be0079c531659141344cd1fd0a4f28419497f9722a3daafe3b4186f6b6457e060405160405180910390a35050565b600080fd5b600073ffffffffffffffffffffffffffffffffffffffff82169050919050565b6000620001df82620001b2565b9050919050565b620001f181620001d2565b8114620001fd57600080fd5b50565b6000815190506200021181620001e6565b92915050565b60008060408385031215620002315762000230620001ad565b5b6000620002418582860162000200565b9250506020620002548582860162000200565b9150509250929050565b612d63806200026e6000396000f3fe608060405234801561001057600080fd5b50600436106100a95760003560e01c8063a98ad46c11610071578063a98ad46c14610140578063b306a81c1461015e578063d12f9e001461018f578063e9ee7783146101ab578063ee10c335146101de578063f2fde38b1461020e576100a9565b8063430996b5146100ae578063715018a6146100ca578063735de9f7146100d45780637f8c5dfc146100f25780638da5cb5b14610122575b600080fd5b6100c860048036038101906100c39190611d78565b61022a565b005b6100d2610721565b005b6100dc610735565b6040516100e99190611e24565b60405180910390f35b61010c60048036038101906101079190611e7d565b61075b565b6040516101199190611ecc565b60405180910390f35b61012a6108cb565b6040516101379190611ef6565b60405180910390f35b6101486108f4565b6040516101559190611f32565b60405180910390f35b61017860048036038101906101739190611e7d565b61091a565b604051610186929190611f4d565b60405180910390f35b6101a960048036038101906101a49190612138565b61095b565b005b6101c560048036038101906101c09190611e7d565b610d3d565b6040516101d59493929190612310565b60405180910390f35b6101f860048036038101906101f39190612371565b6110cf565b6040516102059190612571565b60405180910390f35b61022860048036038101906102239190612371565b611237565b005b600360003373ffffffffffffffffffffffffffffffffffffffff1673ffffffffffffffffffffffffffffffffffffffff1681526020019081526020016000208054905081106102ae576040517f08c379a00000000000000000000000000000000000000000000000000000000081526004016102a5906125f0565b60405180910390fd5b6000600360003373ffffffffffffffffffffffffffffffffffffffff1673ffffffffffffffffffffffffffffffffffffffff168152602001908152602001600020828154811061030157610300612610565b5b906000526020600020906011020190506000805b82600f015481101561041157600083600001826005811061033957610338612610565b5b6003020160000160009054906101000a900473ffffffffffffffffffffffffffffffffffffffff16905060008173ffffffffffffffffffffffffffffffffffffffff166370a08231306040518263ffffffff1660e01b815260040161039e9190611ef6565b602060405180830381865afa1580156103bb573d6000803e3d6000fd5b505050506040513d601f19601f820116820180604052508101906103df9190612654565b90506000811115610402576103f482826112ba565b846103ff91906126b0565b93505b50508080600101915050610315565b50600260009054906101000a900473ffffffffffffffffffffffffffffffffffffffff1673ffffffffffffffffffffffffffffffffffffffff1663a9059cbb33836040518363ffffffff1660e01b815260040161046f9291906126e4565b6020604051808303816000875af115801561048e573d6000803e3d6000fd5b505050506040513d601f19601f820116820180604052508101906104b29190612745565b506001600360003373ffffffffffffffffffffffffffffffffffffffff1673ffffffffffffffffffffffffffffffffffffffff168152602001908152602001600020805490506105029190612772565b83101561064457600360003373ffffffffffffffffffffffffffffffffffffffff1673ffffffffffffffffffffffffffffffffffffffff1681526020019081526020016000206001600360003373ffffffffffffffffffffffffffffffffffffffff1673ffffffffffffffffffffffffffffffffffffffff168152602001908152602001600020805490506105979190612772565b815481106105a8576105a7612610565b5b9060005260206000209060110201600360003373ffffffffffffffffffffffffffffffffffffffff1673ffffffffffffffffffffffffffffffffffffffff168152602001908152602001600020848154811061060757610606612610565b5b9060005260206000209060110201600082018160000190600561062b929190611c0c565b50600f82015481600f0155601082015481601001559050505b600360003373ffffffffffffffffffffffffffffffffffffffff1673ffffffffffffffffffffffffffffffffffffffff168152602001908152602001600020805480610693576106926127a6565b5b6001900381819060005260206000209060110201600080820160006106b89190611cca565b600f8201600090556010820160009055505090553373ffffffffffffffffffffffffffffffffffffffff167fcc5ad7b76caec9641bd2f739450c7ec795a7c639bcab2cc1f972bb555bae39c98483604051610714929190611f4d565b60405180910390a2505050565b610729611541565b61073360006115bf565b565b600160009054906101000a900473ffffffffffffffffffffffffffffffffffffffff1681565b6000600360008473ffffffffffffffffffffffffffffffffffffffff1673ffffffffffffffffffffffffffffffffffffffff1681526020019081526020016000208054905082106107e1576040517f08c379a00000000000000000000000000000000000000000000000000000000081526004016107d8906125f0565b60405180910390fd5b6000600360008573ffffffffffffffffffffffffffffffffffffffff1673ffffffffffffffffffffffffffffffffffffffff168152602001908152602001600020838154811061083457610833612610565b5b906000526020600020906011020190506000805b82600f01548110156108bf57600083600001826005811061086c5761086b612610565b5b6003020190506108a48160000160009054906101000a900473ffffffffffffffffffffffffffffffffffffffff168260020154611683565b836108af91906126b0565b9250508080600101915050610848565b50809250505092915050565b60008060009054906101000a900473ffffffffffffffffffffffffffffffffffffffff16905090565b600260009054906101000a900473ffffffffffffffffffffffffffffffffffffffff1681565b6003602052816000526040600020818154811061093657600080fd5b90600052602060002090601102016000915091505080600f0154908060100154905082565b6000825111801561096e57506005825111155b6109ad576040517f08c379a00000000000000000000000000000000000000000000000000000000081526004016109a490612821565b60405180910390fd5b600081116109f0576040517f08c379a00000000000000000000000000000000000000000000000000000000081526004016109e79061288d565b60405180910390fd5b600080600360003373ffffffffffffffffffffffffffffffffffffffff1673ffffffffffffffffffffffffffffffffffffffff168152602001908152602001600020600181600181540180825580915050039060005260206000209060110201905060005b8451811015610b5157848181518110610a7157610a70612610565b5b602002602001015160000151826000018260058110610a9357610a92612610565b5b6003020160000160006101000a81548173ffffffffffffffffffffffffffffffffffffffff021916908373ffffffffffffffffffffffffffffffffffffffff160217905550848181518110610aeb57610aea612610565b5b602002602001015160200151826000018260058110610b0d57610b0c612610565b5b6003020160010181905550848181518110610b2b57610b2a612610565b5b60200260200101516020015183610b4291906126b0565b92508080600101915050610a55565b5060648214610b95576040517f08c379a0000000000000000000000000000000000000000000000000000000008152600401610b8c906128f9565b60405180910390fd5b835181600f01819055508281601001819055506000600260009054906101000a900473ffffffffffffffffffffffffffffffffffffffff1673ffffffffffffffffffffffffffffffffffffffff166323b872dd3330876040518463ffffffff1660e01b8152600401610c0993929190612919565b6020604051808303816000875af1158015610c28573d6000803e3d6000fd5b505050506040513d601f19601f82011682018060405250810190610c4c9190612745565b905080610c8e576040517f08c379a0000000000000000000000000000000000000000000000000000000008152600401610c859061299c565b60405180910390fd5b610c9882856118be565b3373ffffffffffffffffffffffffffffffffffffffff167f290176f9aa1a28b3fcc03eb4974a4d666b1209c8e00f22db5618f8e69a472d8e6001600360003373ffffffffffffffffffffffffffffffffffffffff1673ffffffffffffffffffffffffffffffffffffffff16815260200190815260200160002080549050610d1f9190612772565b86604051610d2e929190611f4d565b60405180910390a25050505050565b606080606080600360008773ffffffffffffffffffffffffffffffffffffffff1673ffffffffffffffffffffffffffffffffffffffff168152602001908152602001600020805490508510610dc7576040517f08c379a0000000000000000000000000000000000000000000000000000000008152600401610dbe906125f0565b60405180910390fd5b6000600360008873ffffffffffffffffffffffffffffffffffffffff1673ffffffffffffffffffffffffffffffffffffffff1681526020019081526020016000208681548110610e1a57610e19612610565b5b90600052602060002090601102019050600081600f015467ffffffffffffffff811115610e4a57610e49611f8c565b5b604051908082528060200260200182016040528015610e785781602001602082028036833780820191505090505b509050600082600f015467ffffffffffffffff811115610e9b57610e9a611f8c565b5b604051908082528060200260200182016040528015610ec95781602001602082028036833780820191505090505b509050600083600f015467ffffffffffffffff811115610eec57610eeb611f8c565b5b604051908082528060200260200182016040528015610f1a5781602001602082028036833780820191505090505b509050600084600f015467ffffffffffffffff811115610f3d57610f3c611f8c565b5b604051908082528060200260200182016040528015610f6b5781602001602082028036833780820191505090505b50905060005b85600f01548110156110b4576000866000018260058110610f9557610f94612610565b5b6003020190508060000160009054906101000a900473ffffffffffffffffffffffffffffffffffffffff16868381518110610fd357610fd2612610565b5b602002602001019073ffffffffffffffffffffffffffffffffffffffff16908173ffffffffffffffffffffffffffffffffffffffff1681525050806001015485838151811061102557611024612610565b5b602002602001018181525050806002015484838151811061104957611048612610565b5b6020026020010181815250506110878160000160009054906101000a900473ffffffffffffffffffffffffffffffffffffffff168260020154611683565b83838151811061109a57611099612610565b5b602002602001018181525050508080600101915050610f71565b50838383839850985098509850505050505092959194509250565b6060600360008373ffffffffffffffffffffffffffffffffffffffff1673ffffffffffffffffffffffffffffffffffffffff168152602001908152602001600020805480602002602001604051908101604052809291908181526020016000905b8282101561122c578382906000526020600020906011020160405180606001604052908160008201600580602002604051908101604052809291906000905b82821015611201578382600302016040518060600160405290816000820160009054906101000a900473ffffffffffffffffffffffffffffffffffffffff1673ffffffffffffffffffffffffffffffffffffffff1673ffffffffffffffffffffffffffffffffffffffff168152602001600182015481526020016002820154815250508152602001906001019061116f565b505050508152602001600f820154815260200160108201548152505081526020019060010190611130565b505050509050919050565b61123f611541565b600073ffffffffffffffffffffffffffffffffffffffff168173ffffffffffffffffffffffffffffffffffffffff16036112ae576040517f08c379a00000000000000000000000000000000000000000000000000000000081526004016112a590612a2e565b60405180910390fd5b6112b7816115bf565b50565b60008273ffffffffffffffffffffffffffffffffffffffff1663095ea7b3600160009054906101000a900473ffffffffffffffffffffffffffffffffffffffff16846040518363ffffffff1660e01b81526004016113199291906126e4565b6020604051808303816000875af1158015611338573d6000803e3d6000fd5b505050506040513d601f19601f8201168201806040525081019061135c9190612745565b506000600267ffffffffffffffff81111561137a57611379611f8c565b5b6040519080825280602002602001820160405280156113a85781602001602082028036833780820191505090505b50905083816000815181106113c0576113bf612610565b5b602002602001019073ffffffffffffffffffffffffffffffffffffffff16908173ffffffffffffffffffffffffffffffffffffffff1681525050600260009054906101000a900473ffffffffffffffffffffffffffffffffffffffff168160018151811061143157611430612610565b5b602002602001019073ffffffffffffffffffffffffffffffffffffffff16908173ffffffffffffffffffffffffffffffffffffffff16815250506000600160009054906101000a900473ffffffffffffffffffffffffffffffffffffffff1673ffffffffffffffffffffffffffffffffffffffff166338ed17398560008530426040518663ffffffff1660e01b81526004016114d1959493929190612a89565b6000604051808303816000875af11580156114f0573d6000803e3d6000fd5b505050506040513d6000823e3d601f19601f820116820180604052508101906115199190612ba6565b90508060018151811061152f5761152e612610565b5b60200260200101519250505092915050565b61154961195b565b73ffffffffffffffffffffffffffffffffffffffff166115676108cb565b73ffffffffffffffffffffffffffffffffffffffff16146115bd576040517f08c379a00000000000000000000000000000000000000000000000000000000081526004016115b490612c3b565b60405180910390fd5b565b60008060009054906101000a900473ffffffffffffffffffffffffffffffffffffffff169050816000806101000a81548173ffffffffffffffffffffffffffffffffffffffff021916908373ffffffffffffffffffffffffffffffffffffffff1602179055508173ffffffffffffffffffffffffffffffffffffffff168173ffffffffffffffffffffffffffffffffffffffff167f8be0079c531659141344cd1fd0a4f28419497f9722a3daafe3b4186f6b6457e060405160405180910390a35050565b6000600260009054906101000a900473ffffffffffffffffffffffffffffffffffffffff1673ffffffffffffffffffffffffffffffffffffffff168373ffffffffffffffffffffffffffffffffffffffff16036116e2578190506118b8565b6000600267ffffffffffffffff8111156116ff576116fe611f8c565b5b60405190808252806020026020018201604052801561172d5781602001602082028036833780820191505090505b509050838160008151811061174557611744612610565b5b602002602001019073ffffffffffffffffffffffffffffffffffffffff16908173ffffffffffffffffffffffffffffffffffffffff1681525050600260009054906101000a900473ffffffffffffffffffffffffffffffffffffffff16816001815181106117b6576117b5612610565b5b602002602001019073ffffffffffffffffffffffffffffffffffffffff16908173ffffffffffffffffffffffffffffffffffffffff16815250506000600160009054906101000a900473ffffffffffffffffffffffffffffffffffffffff1673ffffffffffffffffffffffffffffffffffffffff1663d06ca61f85846040518363ffffffff1660e01b815260040161184f929190612c5b565b600060405180830381865afa15801561186c573d6000803e3d6000fd5b505050506040513d6000823e3d601f19601f820116820180604052508101906118959190612ba6565b9050806001815181106118ab576118aa612610565b5b6020026020010151925050505b92915050565b60005b82600f01548110156119565760008360000182600581106118e5576118e4612610565b5b600302019050600060648260010154856118ff9190612c8b565b6119099190612cfc565b9050600061193b8360000160009054906101000a900473ffffffffffffffffffffffffffffffffffffffff1683611963565b905080836002018190555050505080806001019150506118c1565b505050565b600033905090565b6000600260009054906101000a900473ffffffffffffffffffffffffffffffffffffffff1673ffffffffffffffffffffffffffffffffffffffff1663095ea7b3600160009054906101000a900473ffffffffffffffffffffffffffffffffffffffff16846040518363ffffffff1660e01b81526004016119e49291906126e4565b6020604051808303816000875af1158015611a03573d6000803e3d6000fd5b505050506040513d601f19601f82011682018060405250810190611a279190612745565b506000600267ffffffffffffffff811115611a4557611a44611f8c565b5b604051908082528060200260200182016040528015611a735781602001602082028036833780820191505090505b509050600260009054906101000a900473ffffffffffffffffffffffffffffffffffffffff1681600081518110611aad57611aac612610565b5b602002602001019073ffffffffffffffffffffffffffffffffffffffff16908173ffffffffffffffffffffffffffffffffffffffff16815250508381600181518110611afc57611afb612610565b5b602002602001019073ffffffffffffffffffffffffffffffffffffffff16908173ffffffffffffffffffffffffffffffffffffffff16815250506000600160009054906101000a900473ffffffffffffffffffffffffffffffffffffffff1673ffffffffffffffffffffffffffffffffffffffff166338ed17398560008530426040518663ffffffff1660e01b8152600401611b9c959493929190612a89565b6000604051808303816000875af1158015611bbb573d6000803e3d6000fd5b505050506040513d6000823e3d601f19601f82011682018060405250810190611be49190612ba6565b905080600181518110611bfa57611bf9612610565b5b60200260200101519250505092915050565b8260056003028101928215611cb9579160030282015b82811115611cb85782826000820160009054906101000a900473ffffffffffffffffffffffffffffffffffffffff168160000160006101000a81548173ffffffffffffffffffffffffffffffffffffffff021916908373ffffffffffffffffffffffffffffffffffffffff1602179055506001820154816001015560028201548160020155505091600301919060030190611c22565b5b509050611cc69190611ce0565b5090565b508060056003020190611cdd9190611ce0565b50565b5b80821115611d2a57600080820160006101000a81549073ffffffffffffffffffffffffffffffffffffffff02191690556001820160009055600282016000905550600301611ce1565b5090565b6000604051905090565b600080fd5b600080fd5b6000819050919050565b611d5581611d42565b8114611d6057600080fd5b50565b600081359050611d7281611d4c565b92915050565b600060208284031215611d8e57611d8d611d38565b5b6000611d9c84828501611d63565b91505092915050565b600073ffffffffffffffffffffffffffffffffffffffff82169050919050565b6000819050919050565b6000611dea611de5611de084611da5565b611dc5565b611da5565b9050919050565b6000611dfc82611dcf565b9050919050565b6000611e0e82611df1565b9050919050565b611e1e81611e03565b82525050565b6000602082019050611e396000830184611e15565b92915050565b6000611e4a82611da5565b9050919050565b611e5a81611e3f565b8114611e6557600080fd5b50565b600081359050611e7781611e51565b92915050565b60008060408385031215611e9457611e93611d38565b5b6000611ea285828601611e68565b9250506020611eb385828601611d63565b9150509250929050565b611ec681611d42565b82525050565b6000602082019050611ee16000830184611ebd565b92915050565b611ef081611e3f565b82525050565b6000602082019050611f0b6000830184611ee7565b92915050565b6000611f1c82611df1565b9050919050565b611f2c81611f11565b82525050565b6000602082019050611f476000830184611f23565b92915050565b6000604082019050611f626000830185611ebd565b611f6f6020830184611ebd565b9392505050565b600080fd5b6000601f19601f8301169050919050565b7f4e487b7100000000000000000000000000000000000000000000000000000000600052604160045260246000fd5b611fc482611f7b565b810181811067ffffffffffffffff82111715611fe357611fe2611f8c565b5b80604052505050565b6000611ff6611d2e565b90506120028282611fbb565b919050565b600067ffffffffffffffff82111561202257612021611f8c565b5b602082029050602081019050919050565b600080fd5b600080fd5b60006060828403121561205357612052612038565b5b61205d6060611fec565b9050600061206d84828501611e68565b600083015250602061208184828501611d63565b602083015250604061209584828501611d63565b60408301525092915050565b60006120b46120af84612007565b611fec565b905080838252602082019050606084028301858111156120d7576120d6612033565b5b835b8181101561210057806120ec888261203d565b8452602084019350506060810190506120d9565b5050509392505050565b600082601f83011261211f5761211e611f76565b5b813561212f8482602086016120a1565b91505092915050565b6000806040838503121561214f5761214e611d38565b5b600083013567ffffffffffffffff81111561216d5761216c611d3d565b5b6121798582860161210a565b925050602061218a85828601611d63565b9150509250929050565b600081519050919050565b600082825260208201905092915050565b6000819050602082019050919050565b6121c981611e3f565b82525050565b60006121db83836121c0565b60208301905092915050565b6000602082019050919050565b60006121ff82612194565b612209818561219f565b9350612214836121b0565b8060005b8381101561224557815161222c88826121cf565b9750612237836121e7565b925050600181019050612218565b5085935050505092915050565b600081519050919050565b600082825260208201905092915050565b6000819050602082019050919050565b61228781611d42565b82525050565b6000612299838361227e565b60208301905092915050565b6000602082019050919050565b60006122bd82612252565b6122c7818561225d565b93506122d28361226e565b8060005b838110156123035781516122ea888261228d565b97506122f5836122a5565b9250506001810190506122d6565b5085935050505092915050565b6000608082019050818103600083015261232a81876121f4565b9050818103602083015261233e81866122b2565b9050818103604083015261235281856122b2565b9050818103606083015261236681846122b2565b905095945050505050565b60006020828403121561238757612386611d38565b5b600061239584828501611e68565b91505092915050565b600081519050919050565b600082825260208201905092915050565b6000819050602082019050919050565b600060059050919050565b600081905092915050565b6000819050919050565b60608201600082015161240060008501826121c0565b506020820151612413602085018261227e565b506040820151612426604085018261227e565b50505050565b600061243883836123ea565b60608301905092915050565b6000602082019050919050565b61245a816123ca565b61246481846123d5565b925061246f826123e0565b8060005b838110156124a0578151612487878261242c565b965061249283612444565b925050600181019050612473565b505050505050565b610220820160008201516124bf6000850182612451565b5060208201516124d36101e085018261227e565b5060408201516124e761020085018261227e565b50505050565b60006124f983836124a8565b6102208301905092915050565b6000602082019050919050565b600061251e8261239e565b61252881856123a9565b9350612533836123ba565b8060005b8381101561256457815161254b88826124ed565b975061255683612506565b925050600181019050612537565b5085935050505092915050565b6000602082019050818103600083015261258b8184612513565b905092915050565b600082825260208201905092915050565b7f496e76616c6964206261736b657420696e646578000000000000000000000000600082015250565b60006125da601483612593565b91506125e5826125a4565b602082019050919050565b60006020820190508181036000830152612609816125cd565b9050919050565b7f4e487b7100000000000000000000000000000000000000000000000000000000600052603260045260246000fd5b60008151905061264e81611d4c565b92915050565b60006020828403121561266a57612669611d38565b5b60006126788482850161263f565b91505092915050565b7f4e487b7100000000000000000000000000000000000000000000000000000000600052601160045260246000fd5b60006126bb82611d42565b91506126c683611d42565b92508282019050808211156126de576126dd612681565b5b92915050565b60006040820190506126f96000830185611ee7565b6127066020830184611ebd565b9392505050565b60008115159050919050565b6127228161270d565b811461272d57600080fd5b50565b60008151905061273f81612719565b92915050565b60006020828403121561275b5761275a611d38565b5b600061276984828501612730565b91505092915050565b600061277d82611d42565b915061278883611d42565b92508282039050818111156127a05761279f612681565b5b92915050565b7f4e487b7100000000000000000000000000000000000000000000000000000000600052603160045260246000fd5b7f496e76616c6964206e756d626572206f6620746f6b656e730000000000000000600082015250565b600061280b601883612593565b9150612816826127d5565b602082019050919050565b6000602082019050818103600083015261283a816127fe565b9050919050565b7f4d7573742073656e642055534454000000000000000000000000000000000000600082015250565b6000612877600e83612593565b915061288282612841565b602082019050919050565b600060208201905081810360008301526128a68161286a565b9050919050565b7f546f74616c2070657263656e74616765206d7573742062652031303000000000600082015250565b60006128e3601c83612593565b91506128ee826128ad565b602082019050919050565b60006020820190508181036000830152612912816128d6565b9050919050565b600060608201905061292e6000830186611ee7565b61293b6020830185611ee7565b6129486040830184611ebd565b949350505050565b7f4661696c656420746f207472616e736665722055534454000000000000000000600082015250565b6000612986601783612593565b915061299182612950565b602082019050919050565b600060208201905081810360008301526129b581612979565b9050919050565b7f4f776e61626c653a206e6577206f776e657220697320746865207a65726f206160008201527f6464726573730000000000000000000000000000000000000000000000000000602082015250565b6000612a18602683612593565b9150612a23826129bc565b604082019050919050565b60006020820190508181036000830152612a4781612a0b565b9050919050565b6000819050919050565b6000612a73612a6e612a6984612a4e565b611dc5565b611d42565b9050919050565b612a8381612a58565b82525050565b600060a082019050612a9e6000830188611ebd565b612aab6020830187612a7a565b8181036040830152612abd81866121f4565b9050612acc6060830185611ee7565b612ad96080830184611ebd565b9695505050505050565b600067ffffffffffffffff821115612afe57612afd611f8c565b5b602082029050602081019050919050565b6000612b22612b1d84612ae3565b611fec565b90508083825260208201905060208402830185811115612b4557612b44612033565b5b835b81811015612b6e5780612b5a888261263f565b845260208401935050602081019050612b47565b5050509392505050565b600082601f830112612b8d57612b8c611f76565b5b8151612b9d848260208601612b0f565b91505092915050565b600060208284031215612bbc57612bbb611d38565b5b600082015167ffffffffffffffff811115612bda57612bd9611d3d565b5b612be684828501612b78565b91505092915050565b7f4f776e61626c653a2063616c6c6572206973206e6f7420746865206f776e6572600082015250565b6000612c25602083612593565b9150612c3082612bef565b602082019050919050565b60006020820190508181036000830152612c5481612c18565b9050919050565b6000604082019050612c706000830185611ebd565b8181036020830152612c8281846121f4565b90509392505050565b6000612c9682611d42565b9150612ca183611d42565b9250828202612caf81611d42565b91508282048414831517612cc657612cc5612681565b5b5092915050565b7f4e487b7100000000000000000000000000000000000000000000000000000000600052601260045260246000fd5b6000612d0782611d42565b9150612d1283611d42565b925082612d2257612d21612ccd565b5b82820490509291505056fea26469706673582212205607ef59e7bb3aeb42d1387c0456cbdf7bf0c5c870eac89c8ffa62d111bad11564736f6c63430008180033",
  "linkReferences": {},
  "deployedLinkReferences": {}
}